:100000000C9429020C9470020C9470020C947002EF
:100010000C9470020C9470020C9470020C94700298
:100020000C9470020C9470020C945A230C942C249F
:100030000C94B41E0C9470020C9470020C94700218
:100040000C9470020C9470020C9470020C94700268
:100050000C9470020C941C1F0C9470020C9470028F
:100060000C9470020C9470020C9470020C94700248
:100070000C9470020C9470020C9470020C94700238
:100080000C9470020C9470020C9470020C94700228
:100090000C9470020C9470020C9470020C94700218
:1000A0000C9470020C9470020C947002630365034C
:1000B0007003670369036B036D036F0372037403BB
:1000C0007603810378037A037C037E038003830332
:1000D0001515151547154715B216B216B216B216F4
:1000E0009415311642164216A216B216B216AB1667
:1000F000281728173A173A1731173A173A173A17A5
:100100002817281736173A173A1736179924C02494
:10011000B225C024B2250C252F25B225852594258E
:100120002900E000E10006001400040000001D00AA
:100130001A00160000002C4108000700050000000E
:10014000150009000A000000000000000000000087
:1001500000000400240000001A0016002500000022
:10016000000007002600000000000000270000003B
:1001700000047F3F1F643214643214783C1E1E1446
:100180000A052223252628292A2C2D2F3032333503
:1001900036383A3B3D3E4042434547494A4C4E5033
:1001A00051535557595A5C5E6062646668696B6D5D
:1001B0006F71737577797B7D7F81838587898A8C61
:1001C0008E90929496989A9C9E9FA1A3A5A7A8AA68
:1001D000ACAEAFB1B3B4B6B8B9BBBCBEBFC1C2C39D
:1001E000C5C6C7C9CACBCCCDCED0D1D2D2D3D4D537
:1001F000D6D7D7D8D9D9DADADBDBDBDCDCDCDCDC60
:10020000DDDDDDDDDCDCDCDCDCDBDBDBDADAD9D937
:10021000D8D7D7D6D5D4D3D2D2D1D0CECDCCCBCAC5
:10022000C9C7C6C5C3C2C1BFBEBCBBB9B8B6B4B3EB
:10023000B1AFAEACAAA8A7A5A3A19F9E9C9A989681
:100240009492908E8C8A89878583817F7D7B797754
:100250007573716F6D6B6968666462605E5C5A5934
:1002600057555351504E4C4A4947454342403E3DF5
:100270003B3A3836353332302F2D2C2A2928262583
:100280002322FFAA7F55400000000000000000006C
:100290000001010101010101010102020202020249
:1002A0000202030303030303030404040404050517
:1002B00005050506060606060707070708080808D5
:1002C0000909090A0A0A0B0B0B0C0C0C0D0D0D0E7B
:1002D0000E0E0F0F1010101111121213131414150B
:1002E0001516161717181819191A1A1B1C1C1D1D7C
:1002F0001E1F1F20212122232324252526272828CD
:10030000292A2B2C2C2D2E2F3031313233343536F7
:100310003738393A3B3C3D3E3F40414243444546F5
:100320004748494B4C4D4E4F5052535455575859CE
:100330005A5C5D5E606163646567686A6B6C6E6F72
:100340007172747677797A7C7D7F818284868789E1
:100350008B8D8E9092949597999B9D9FA1A2A4A618
:10036000A8AAACAEB0B2B4B6B9BBBDBFC1C3C5C814
:10037000CACCCED0D3D5D7DADCDEE1E3E6E8EAEDCD
:10038000EFF2F4F7F9FCFF00AE00AF00DA02818F64
:10039000D9F1DB40A4A62EAF00A0C000A1C800AEDA
:1003A000D580A81FD300408D142000040330000026
:1003B000001403530075006900680061006E006B53
:1003C0000065007900000010036B0061006B007590
:1003D000006E00700063000000040309040902229B
:1003E00000010100A0FA0904000001030101000955
:1003F00021110100012240000705810308000A12B3
:1004000001100100000008EDFE00000100010203E0
:100410000105010906A101050719E029E7150025D5
:10042000019508750181029501750881010508197A
:100430000129059505750191029501750391010545
:1004400007190029FF150026FF0095067508810091
:10045000C00011241FBECFEFDAE0DEBFCDBF04B66F
:1004600003FE27C080916A0490916B04A0916C04F4
:10047000B0916D048730904BA740B04BD1F41092EF
:100480006A0410926B0410926C0410926D0414BEF6
:1004900084B7877F84BF0FB6F894A89580916000D9
:1004A000886180936000109260000FBEE0E0F8E386
:1004B000099511E0A0E0B1E0E6EDFCE402C0059092
:1004C0000D92AA35B107D9F724E0AAE5B1E001C041
:1004D0001D92AA36B207E1F70E948F200C9469267C
:1004E0000C94000081E0089581E008950C9474025A
:1004F0001F93CF93DF9300D000D01F92CDB7DEB70C
:1005000049835A832091AC0189819A81211112C0BB
:10051000662349F00E944B1C182F682F89819A810D
:100520000E94F21B03C00E94201C182F69817A814F
:10053000812F04C00E944B1C69817A810F900F901B
:100540000F900F900F90DF91CF911F910C94F404B6
:10055000FC01408151816281738184810C94780215
:100560000E94BB078FE39CE90197F1F700C00000F0
:100570000E94BB0780E00E946B0780FF04C00E94BE
:100580007B1D0C94421F08950E94B0020E94811DA1
:10059000811102C00E94071E0C9466070C94690723
:1005A00008950C94D0020C94D10208950E9418175B
:1005B0000E94D5022FEF84E39CE0215080409040C0
:1005C000E1F700C000000C94421F0F931F93CF93DC
:1005D000DF938C010E94A802EC01B8010E94760210
:1005E000882309F4F7C1B801CE010E94D5108823F1
:1005F00009F4F0C1CA3CFCE5DF0741F4F80182814F
:10060000882309F4E7C10E94310BE4C1CB3C8CE59F
:10061000D80708F012C1C33C9CE5D90761F4F80182
:100620008281882309F4D6C10E94CB1C8272E1F03A
:100630000E945C0DCFC1C43CECE5DE07C0F0C63CB7
:100640009CE5D90709F4CAC008F0DCC0C43CFCE54D
:10065000DF0709F0CBC0F8018281882309F4BAC111
:100660000E94CB1C827221F30E944F0DB3C1C53191
:10067000FCE5DF0708F07BC0C2308CE5D80708F442
:1006800052C0F8018281882309F454C00E94811D60
:10069000811102C00E94071E0E94941D90E0909359
:1006A0005C0480935B04FE01E350FC45E231F105FC
:1006B00030F4EA5AFF4F80915B040C940E2680912F
:1006C0005B04816027C0826025C0846023C0806194
:1006D00021C080621FC080641DC080681BC0846010
:1006E000886018C08E7F16C08D7F14C08B7F12C0AB
:1006F0008F7E10C08F7D0EC08F7B0CC08F770AC09D
:100700008B7F877F07C087FB222720F991E0922704
:1007100090FB87F980935B0480915B040E94981D95
:100720000E94181757C1C1159CE5D90751F0C13077
:10073000DC4579F0C801DF91CF911F910F910C94A6
:100740007202F8018281882309F444C10E94D60212
:1007500041C1F8018281882309F43CC180910902DA
:10076000982F909590FB80F98093090233C1C63190
:10077000FCE5DF0739F50E94CB1C282FF8018281A8
:100780004091170150911801882379F02A7A91E05D
:1007900009F490E090935A01911102C069E201C0FE
:1007A00065E3CA010E943B1E0AC080915A01811173
:1007B00002C069E201C065E3CA010E943D1E0E94B9
:1007C000171D08C1C23CDC4509F0B4CFF801828195
:1007D000882309F4FFC00E946A0DFCC0F8018281E1
:1007E000882309F4F7C00E94F50AF4C0C53CDC4533
:1007F00009F0A0CFF8018281882309F4EBC00E94A0
:10080000E80AE8C0F8018281C83CFCE5DF0731F462
:10081000882309F4DFC00E94130BDCC0C93CDC450F
:1008200030F4882309F4D6C00E94040BD3C0882377
:1008300009F4D0C00E94220BCDC0C13DECE5DE071B
:1008400091F4F8018281882309F4C4C00E946309ED
:100850008F3028F00E946309843108F405CF8FE0BF
:100860000E945F0DB7C0C23DFCE5DF0708F05AC02B
:10087000CD3C8CE5D80739F4F8018281882309F44E
:10088000A9C081E0EDCFCE3C9CE5D907C0F4CB3CBC
:10089000ECE5DE0741F4F8018281882309F49AC06F
:1008A0000E946B0997C0CC3CDC4509F043CFF801AE
:1008B0008281882309F48EC00E947C098BC0F801D4
:1008C0008281CF3CFCE5DF0771F4882309F482C004
:1008D0000E946309863028F00E946309883008F47A
:1008E000C3CE86E0BDCFC03DDC4570F4882309F45B
:1008F00071C00E946309823028F00E94630985302C
:1009000008F4B2CE82E0ACCF882309F463C00E9421
:100910006309893028F00E9463098E3008F4A4CE60
:1009200089E09ECFC53DECE5DE0739F4F801828110
:10093000882309F44FC083E293CFC63DFCE5DF076F
:1009400040F5F8018281C33DFCE5DF0729F48823E7
:1009500009F440C088E184CFC43DDC4568F48823B5
:10096000C9F10E946309853128F00E94630987312B
:1009700008F47ACE85E174CF882361F10E9463097F
:10098000893128F00E946309823208F46DCE89E132
:1009900067CFCD3DECE5DE0741F4F8018281882385
:1009A000C9F082E00E941D2115C0CE3DFCE5DF07A5
:1009B00039F4F8018281882369F00E94071E0AC079
:1009C000CC3DDC4509F0B6CEF8018281882311F0D8
:1009D00080E0E8CF80E0DF91CF911F910F910895E3
:1009E00080E090E008950895E72FF0E095E0899F7A
:1009F000E00DF11D1124EE0FFF1FEE0FFF1FE60F9C
:100A0000F11DEE0FFF1FE05EFE4F8591949108955A
:100A1000880F991FFC01E059FE4F8591949108952C
:100A2000CF93DF930E94F4040E94C506EC01811568
:100A300020E59207F0F5811530E4930708F024C112
:100A4000883E910500F5803E910508F09AC1883AEC
:100A5000910570F4853A910508F09FC081309105A9
:100A600009F48FC108F440C1049708F08AC13CC161
:100A70008F3B910508F49CC0803C910508F434C17B
:100A8000805C9109F4C0811540E2940758F4C115C7
:100A900081E0D80708F075C1C03FD10508F424C132
:100AA000D0656FC1811520E3920708F0E4C09F7004
:100AB000DEC0811535E5930708F044C0811544E593
:100AC000940708F0F8C0C11582E5D80708F5C115EC
:100AD00021E5D20708F0DBC08C2F837021E030E0E5
:100AE00002C0220F331F8A95E2F73C68CE0174E002
:100AF000969587957A95E1F78370382BCF70C695D8
:100B0000C69580E2C89FE0011124C22BD32B39C1C6
:100B10002C2F26952695CE0183709927C115D34594
:100B200008F0BAC040E2249F90011124C1E0D0E057
:100B300002C0CC0FDD1F8A95E2F72C2B3D2BE9017B
:100B4000DC681FC1811549E59407A0F4C11588E54B
:100B5000D80708F0B5C0C11526E5D20708F0C4C013
:100B60008C2F0E9442078F71C82FD0E0DC2FCC273A
:100B7000D06207C181153AE5930708F4A6C09056E4
:100B80008115904208F0B0C08D2F8F710E944207EE
:100B9000DD27D0628F71D82BF4C0853A910509F416
:100BA000A6C0863A910509F0A5C0C2E8D0E4E9C024
:100BB000883A910509F4A1C0893A910509F4A0C0C9
:100BC0008A3A910509F49FC08B3A910509F49EC0B9
:100BD0008C3A910509F49DC08B3B910509F49CC0AA
:100BE0008C3B910509F49BC08D3A910509F49AC09C
:100BF000803B910509F499C08E3A910509F498C09B
:100C00008F3A910509F497C0813B910509F496C08C
:100C1000823B910509F495C0833B910509F494C08A
:100C2000843B910509F493C0853B910509F492C07A
:100C3000863B910509F491C0873B910509F490C06A
:100C4000883B910509F48FC0893B910509F48EC05A
:100C50008D3B910509F48DC08E3B910509F48CC044
:100C60008A3B910509F48BC0C0E0D4E48AC00E949D
:100C70000805EC0186C09927D3FF03C0EC01D86CAE
:100C800080C0EC01D06C7DC0DF70D06A7AC0DC2FF0
:100C9000CC27C16FD06A75C040E2249F9001112417
:100CA000C1E0D0E002C0CC0FDD1F8A95E2F7C22B75
:100CB000D32BDA6866C0D82FCC27C46FD06A61C046
:100CC000DC2FCC27C06FD06A5CC08F700E944207B7
:100CD00094E0D695C7959A95E1F7CF70D0E0DC2FD8
:100CE000CC27D069C82B4DC0C0E0D0E04AC0C1E8D5
:100CF000D0E447C0C3E8D0E444C0C2EED4E441C06D
:100D0000C9EED4E43EC0CAEED4E43BC0C5EBD4E4A3
:100D100038C0C6EBD4E435C0C3EBD4E432C0C4EB76
:100D2000D4E42FC0C7EBD4E42CC0CCECD4E429C06D
:100D3000CDECD4E426C0C3E8D5E423C0CAE8D5E4AA
:100D400020C0C2E9D5E41DC0C4E9D5E41AC0C1E29F
:100D5000D6E417C0C3E2D6E414C0C4E2D6E411C09E
:100D6000C5E2D6E40EC0C6E2D6E40BC0C7E2D6E4C4
:100D700008C0CFE6D4E405C0C0E7D4E402C0CAE2AC
:100D8000D6E4CE01DF91CF9108958238910549F1E3
:100D9000B0F48133910509F458C048F489329105C3
:100DA00009F44EC08A32910509F454C00895853380
:100DB000910509F440C08933910599F00895833E67
:100DC000910529F138F4803E910591F0823E91051C
:100DD000A1F00895863E9105F9F0873E910531F125
:100DE000089520915B0420FD3AC021FD38C008958C
:100DF00080915B0480FD35C032C080915B0482FF2E
:100E000032C080915B0484FD30C083EE39C0809194
:100E10005B0482FD28C0F5CF80915B0483FF27C06F
:100E200080915B0484FD21C087EE2AC080915B0421
:100E300083FD1DC0F5CF80915B0485FD1AC01BC0EA
:100E400080915B0485FD17C014C080915B0486FD12
:100E500014C015C080915B0486FD11C00EC080EEE9
:100E60000FC089E30DC082EE0BC080E009C086EEA2
:100E700007C089E205C085E303C08AE201C081E3BF
:100E800090E0089590915B0492FF0DC0282F287187
:100E9000283019F4877F846006C0282F24712430FD
:100EA00011F48B7F886093FF0DC0282F28712831A3
:100EB00019F4877E846106C0282F2471243111F42F
:100EC0008B7E886194FD877E089508950C94650754
:100ED00008950C946807E82FF0E0E55AFE4F8081F2
:100EE00008950895A8E2B1E041E050E025E02A0F1E
:100EF0008D91E82FE295EF70F0E031A18F70BA018B
:100F000002C0660F771F8A95E2F7CB01962F909566
:100F1000932391A392A1892B82A32A13E9CFA4E260
:100F2000B1E041E050E024E02A0F8D91E82FE295F6
:100F3000EF70F0E031A18F70BA0102C0660F771F29
:100F40008A95E2F7CB01962F9095932391A392A1D6
:100F5000892B82A32A13E9CFABE5B1E0E0E6F1E00B
:100F600085E08E0F11921D928E13FCCF85E00E94BA
:100F700042080C94C4026F927F928F929F92AF921C
:100F8000BF92CF92DF92EF92FF920F931F93CF9376
:100F9000DF9368E271E0A0E6B1E0712C01E010E0BF
:100FA000D5E06D2E6A0E7D019C901C92EB0189911B
:100FB000BE01E82FE295EF70F0E091A18F70A801DB
:100FC00001C0440F8A95EAF7892F842B81A392A14F
:100FD000842F8095982392A3D0EADA95F1F7C4E2A2
:100FE000CC2EC1E0DC2E20E030E0E60199916E01CC
:100FF000A92EA2945FE0A522B12CE501A8A08C90B7
:10100000B12C9F7002C0B594A7949A95E2F7A0FC0A
:1010100007C0902F022E01C0990F0A94EAF701C071
:1010200090E098299C932F5F3F4F24303105E9F6DB
:1010300091A1892381A382A1482B42A3119681E02B
:10104000F7019081991201C080E0782A6A12ABCF33
:10105000272D45E06BE571E080E691E00E944308B2
:101060000E94CE02872DDF91CF911F910F91FF90AB
:10107000EF90DF90CF90BF90AF909F908F907F9038
:101080006F9008950895FF920F931F93CF93DF936E
:101090008C01F62ED72FC42F222349F081E08093B4
:1010A00067010E94E61E909366018093650180911E
:1010B00067018823C1F080916501909166010E94CB
:1010C000F21E069780F0EF2DFD2FD8014C2F50E037
:1010D000CD01801B910B841795071CF48D91819392
:1010E000F7CF10926701DF91CF911F910F91FF9081
:1010F0000895CF92DF92EF92FF920F931F93CF93B9
:10110000DF937B01282F382FE82FF0E0F11006C085
:10111000E957FD4F6491762F862F7BC00F2D10E08D
:1011200046E0649FC0011124CFEFD0E0BE010E94D1
:10113000E625AB016BEA6403C001659F900D1124A5
:101140008E0D911D8E0D911D982F990F890FBE0147
:10115000601B710B6E9FD0016F9FB00D7E9FB00D15
:1011600011249B2F8F9DB0011124672F77277E01BB
:10117000E61AF70AEE9EB001EF9E700DFE9E700D0E
:1011800011246E01C81AD108C09E7001C19EF00CD6
:10119000D09EF00C11240F2D1127C01BD10BCE9F18
:1011A0008001CF9F100DDE9F100D1124812F423042
:1011B000510591F04CF441155105E1F041305105D4
:1011C000B9F4822F272F16C04430510569F044F03E
:1011D0004630510579F00CC0822F2B2F912F0AC079
:1011E0002B2F932F872F06C08B2F922F212F02C0DA
:1011F0008B2F972FE22FF0E0E957FD4F7491E82FE6
:10120000F0E0E957FD4F6491E92FF0E0E957FD4F19
:101210008491DF91CF911F910F91FF90EF90DF901C
:10122000CF9008950895CF93DF93762FE901682F2B
:10123000842F0E947908798368838A83DF91CF9114
:10124000089580911802282F269530E02115310548
:1012500019F48170826005C02532310524F0817057
:10126000886480931802089588E090E00C94292601
:10127000CF93DF9300D000D0CDB7DEB7AB01BC0178
:1012800049835A836B837C830E94210949815A8157
:101290006B817C8188E090E00F900F900F900F9011
:1012A000DF91CF910C944726E8E1F2E083E0808360
:1012B00011828FEF828383831482608171818281A6
:1012C00093810C9438098091180280FF02C08695A2
:1012D000089580E0089580911C02833018F48F5F98
:1012E00080931C02609118027091190280911A0279
:1012F00090911B020C94380980911C02882319F0EC
:10130000815080931C0260911802709119028091A3
:101310001A0290911B020C9438096091040170E04C
:101320008091180280FF0AC080916C0123E0829FA7
:10133000C0011124835E9D4F0C94830E80916B013C
:1013400090910301891780F7E82FF0E09F01220FA9
:10135000331FE20FF31FE35EFD4F118210821282F2
:101360008F5FF0CF9091180290FF16C090916B01A3
:1013700020910301921770F4E92FF0E0DF01AA0F2A
:10138000BB1FEA0FFB1FE35EFD4F81836083428337
:101390009F5FF0CF0C948D090895CF93DF9300D019
:1013A0001F92CDB7DEB79091180290FF0AC09E0140
:1013B0002F5F3F4F0E9413094B8169818A810E94F0
:1013C000B2090F900F900F90DF91CF910895CF93B6
:1013D000DF93EC01EC81F0E0EE57FE4F4491E8E141
:1013E000F2E0628181810E94CD098C818F5F8C83C4
:1013F000DF91CF910895CF93DF93EC01E8E1F2E024
:10140000438162818C810E94CD098C818F5F8C83A6
:10141000DF91CF9108950F931F93CF93DF9300D067
:101420001F92CDB7DEB78C018091680181110AC08F
:101430009E012F5F3F4F4FEF6FEF0E9413098A818C
:1014400080936801F8018481813051F028F0823066
:1014500061F4409168010AC08091680140E007C0D2
:101460006091680140E080E003C040E080E060E01F
:101470000E94B209F801248130E0C901019663E0BD
:1014800070E00E94FA2584830F900F900F90DF91F7
:10149000CF911F910F910895AF92BF92CF92DF929B
:1014A000EF92FF920F931F93CF93DF9300D01F9281
:1014B000CDB7DEB7182FF62E042FE22E909118022A
:1014C00090FF6EC0E92FE695AE2FB0E0A35DBE4F52
:1014D0008C91809374019E7F923061F49E012F5F06
:1014E0003F4F812F0E9413094B8169818A810E949D
:1014F000B20944C0823019F400911B023FC086300B
:1015000019F4109119023AC08930D9F38931B1F533
:10151000E9518E2F8170D82EE695F0E0EE57FD4F01
:10152000A590B490C12CBB2460910201C61620F591
:10153000EC2DF0E0EA9DC001EB9D900DFA9D900D21
:10154000112470E00E94E625812FD11002C0860F81
:1015500001C0861B90916B01E90FF11D9F01220FC5
:10156000331FE20FF31F9F01235E3D4F402F6F2D6E
:101570000E941309C394D8CF0E948D0910931902B9
:10158000F0921A0200931B02EE2051F060911802B3
:101590007091190280911A0290911B020E943809E1
:1015A0000F900F900F90DF91CF911F910F91FF90AF
:1015B000EF90DF90CF90BF90AF900895E8E1F2E018
:1015C0009181282F4381628188E0890F0C944C0A15
:1015D00081E00C94DE0AE8E1F2E09181282F43815A
:1015E000628188EF890F0C944C0A81E00C94EB0A1D
:1015F000E8E1F2E0628128E0620F08F46FEF282F43
:10160000438181810C944C0A81E00C94F80AE8E152
:10161000F2E0628128E0621B08F460E0282F438139
:1016200081810C944C0A81E00C94070BE8E1F2E014
:10163000438128E0420F08F44FEF282F6281818117
:101640000C944C0A81E00C94160BE8E1F2E0438123
:1016500028E0421B08F440E0282F628181810C942D
:101660004C0A81E00C94250B20E00C944C0AFF926C
:101670000F931F93CF93DF93EC01F12C0FEF10E04A
:1016800060910201F616E8F420916B0130E02F0D15
:10169000311DC901880F991F280F391F235E3D4F47
:1016A00070E0C8010E94FA25962F8C8140911B02A0
:1016B00060911A02F99E800D11240E941309F3947F
:1016C000DFCF0E948D099A818C8190FF02C08F5FCD
:1016D00001C081508C83DF91CF911F910F91FF90BA
:1016E0000895BF92CF92DF92EF92FF920F931F93D4
:1016F000CF93DF93FC01828180FF02C00FEF01C016
:1017000001E010E0809102011817E0F5C12ED12C04
:1017100080916B01E601C80FD11DCE01880F991F82
:10172000C80FD91FC35EDD4F198218821A8234E0B8
:10173000E32EF12CB12C80916A018B0D87FF03C041
:1017400090910201890F082E000C990BC816D9063A
:1017500091F480911B028E9DA0018F9D500D11244C
:1017600055954795559547959E0160911A02809130
:1017700019020E941309B00EF1E0EF1AF108D9F630
:101780001F5FC0CF0E948D0980916A01013031F442
:10179000811102C080910201815007C090E0019642
:1017A0006091020170E00E94FA2580936A01DF9146
:1017B000CF911F910F91FF90EF90DF90CF90BF904E
:1017C0000895CF9380916B0190910301891770F474
:1017D000E82FF0E09F01220F331FE20FF31FE35EBB
:1017E000FD4F1182108212828F5FF0CFC0E06091B6
:1017F0000201C617B8F5EC2FF0E070E0CF010E94AF
:10180000FA2540916B01480F80916901082E000C68
:10181000990B50E0E817F907C4F020910101022E5E
:10182000000C330B2E173F0784F09A01220F331F51
:10183000240F351F235E3D4F40911B0260911A0219
:10184000809119020E9413090BC0FA01EE0FFF1FCD
:101850004E0F5F1FFA01E35EFD4F1182108212826C
:10186000CF5FC5CF0E948D09209100018091690151
:10187000820F8093690190910101920F9093010171
:1018800019165CF4082E000C990B4091020150E0EF
:1018900041505109841795071CF0219520930001B0
:1018A000CF9108950F931F93CF93DF938C01FC0189
:1018B0008481958101968170992795838483C0E006
:1018C000D5E580910201C817F8F420916B0130E052
:1018D0002C0F311DC901880F991F280F391F235E56
:1018E0003D4F4C2F4695F80184819581840F911DC1
:1018F000817040911B0260911A028D9F802D1124EE
:101900000E941309CF5FDDCFDF91CF911F910F911F
:101910000C948D090F931F93CF93DF93EC0100E09C
:1019200010E080910201282F30E00217130724F500
:1019300090916B019801290F311DA901440F551F8A
:10194000240F351F235E3D4F869590E04C8108178C
:1019500019071CF4442331F002C0411103C0409127
:101960001B0201C040E060911A02809119020E949E
:1019700013090F5F1F4FD5CF0E948D092C8130E0D6
:101980002F5F3F4F217033272C83DF91CF911F9121
:101990000F910895E8E1F2E080818E7F808360817D
:1019A0007181828193810E943809109275012FEF15
:1019B00080E792E0215080409040E1F700C00000B5
:1019C0000C948D09E8E1F2E080818E7F8083109293
:1019D00075012FEF80E792E0215080409040E1F7C1
:1019E00000C000000C948D0960911802669570E0AB
:1019F0004BE050E085E091E00E941426892B19F419
:101A000081E0809375010E94E61E90936E018093A1
:101A10006D0108959091180290FF35C09170811169
:101A200002C0926006C0853210F0986402C0880F30
:101A3000982B90931802662351F0609118027091D0
:101A4000190280911A0290911B020E94380960913C
:101A50001802669570E04BE050E085E091E00E944E
:101A60001426892B19F01092750102C00E94F40C03
:101A700081E08093700140911B0260911A02809175
:101A800019020C94340B0895682F909118029695C2
:101A900081E0890F853208F081E00C940A0D81E025
:101AA0000C94440D682F9091180296958FEF890F32
:101AB00009F484E20C940A0D81E00C94520D61E06B
:101AC0000C940A0DE8E1F2E08081816080838695C4
:101AD0000C945F0D8091180280FD0C94CA0C0C943C
:101AE000620D60E00C940A0D80917301811133C086
:101AF000809109028160809309020E94811D8111F9
:101B000004C00E94071E0E9454090E943409609379
:101B100018027093190280931A0290931B026E7F31
:101B200061F40E9454090E94340960931802709372
:101B3000190280931A0290931B020E9421091092AD
:101B400075018091180280FF03C086950E94710D77
:101B500081E0809373010895E8E1F2E08081816083
:101B6000808386950C94710D1092750108950F93E2
:101B70001F93CF93DF9380917501882309F48CC064
:101B800080917401E0911802E695E81BE0936F01E3
:101B9000823049F4F0E0E258FE4FE491CE2FD0E0DD
:101BA00007EE19E049C0863049F4F0E0E558FE4FF1
:101BB000E491CE2FD0E00BEF19E03EC0893051F414
:101BC000E695F0E0E858FE4FE491CE2FD0E007E331
:101BD0001BE032C08F3051F4E695F0E0EB58FE4F39
:101BE000E491CE2FD0E001E71BE026C0853149F417
:101BF000F0E0EE58FE4FE491CE2FD0E001EE1BE076
:101C00001BC0883181F0833239F4E0E7F1E0C591FF
:101C1000D4910BE01AE010C0843251F4C4EFD1E04B
:101C20000AE81CE009C0C8EED3E002E51CE004C0ED
:101C3000C0EDD7E002E119E080917001882389F0BE
:101C4000109270010E94E61E9E0120953095820F31
:101C5000931F90936E0180936D0110927201109208
:101C6000710180916D0190916E010E94F21E8C179E
:101C70009D0790F0E0916D01F0916E01CE0FDF1F96
:101C8000D0936E01C0936D018DE691E0F801DF9174
:101C9000CF911F910F910994DF91CF911F910F91D7
:101CA00008952BB1342F309523233BB1432B3FB7FD
:101CB000F894FC01680F791FE617F70789F0819106
:101CC00098E04BB9000000C087FF2BB9880F0000D7
:101CD00000C000C000C02BB900C09A9591F7ECCFAE
:101CE0003FBF08952AB1242B2AB99B01220F331F2D
:101CF000620F731F0E94510E87EC90E00197F1F77D
:101D000000C00000089548E00C94720EEF92FF921C
:101D10000F931F93CF93DF9300D0CDB7DEB77C0135
:101D20008B0164E670E088E70E941C110E0D1F1DF8
:101D3000E016F10669F097FD0BC0F701849164E6A7
:101D400070E00E947311FFEFEF1AFF0A009781F312
:101D500089839A830E94F71189819A810F900F904D
:101D6000DF91CF911F910F91FF90EF90089508950B
:101D7000E3E5F2E080E092E0DF019C011D9221505A
:101D80003040E1F7F0935604E09355048FEF9FEF56
:101D900090939C0180939B0108950E94B70E8093BD
:101DA000970180FD02C080E801C080E28093960127
:101DB0000E9416116DE070E08EE993E00E94860E9D
:101DC000892B11F080E008958091970163E070E025
:101DD00081FD03C08BE993E002C088E993E00E9493
:101DE000860E892B79F76DE070E08BE893E00E9416
:101DF000860E892B39F70E94B80E81E080939A01F4
:101E0000809399011092980108952091960136E0EF
:101E1000839FC0011124629F800D911D11248115A3
:101E200022E0920714F080E090E08D5A9D4F90934D
:101E300056048093550408950E94E61E909354041E
:101E4000809353048091990181110BC062E070E08E
:101E500089E893E00E94860E892B19F481E0809333
:101E600099018091990108954F925F926F927F92AC
:101E70008F929F92AF92BF92CF92DF92EF92FF929A
:101E80000F931F93CF93DF9320919B0130919C017F
:101E90002115310509F4D8C0809198018111D4C071
:101EA00061E070E0082F10E02B01082E02C0440C06
:101EB000551C0A94E2F7A20142235323452B11F447
:101EC0008F5FF0CF90919701980165E0220F331F4B
:101ED0006A95E1F790FD12C08295880F8076809315
:101EE0001201220F232F221F330B3195209315014E
:101EF000815E809313011092160112C045E0369561
:101F000027954A95E1F7220F220F220F2093120105
:101F100010921501295F2093130183E0809316012D
:101F200024E630E047E050E060E171E088E70E949D
:101F3000A311892B09F088C08091970180FD23C0EF
:101F4000A80135E0440F551F3A95E1F74D5A5D4F12
:101F500004E610E020E230E060E488E70E94CA1165
:101F6000892B09F071C00E941C0FE201C095D09529
:101F700080919B0190919C01C823D923D0939C010F
:101F8000C0939B0161C080E2E6E7F1E0DF011D92B2
:101F90008A95E9F785E0000F111F8A95E1F742E580
:101FA00051E0A6E5B1E097E0992E8824839424E0DF
:101FB000A22EAA0E9D91EA018991AE01B801680F87
:101FC000711D6D5A7D4FE92FF0E0EA58FE4F20E079
:101FD00030E0792C721AB82C022E01C0BB0C0A9486
:101FE000EAF77B0190E0E70189917E018B21672C64
:101FF000691AD62DD770CD2E0D2E000CDD08C82FF6
:1020000001C0CC0FDA95EAF7D194C194D108D7E09A
:10201000CD22DD2401C08695CA94EAF78C2BD080AE
:102020008D2980839F5F9830F1F62F5F3F4F319667
:102030002830310571F6AA12BDCF04E610E020E287
:1020400030E046E751E088CFDF91CF911F910F91AB
:10205000FF90EF90DF90CF90BF90AF909F908F90C8
:102060007F906F905F904F900895809199018823A1
:1020700069F062E070E087E893E00E94860E892BA9
:1020800019F0809199010895109299019091990108
:1020900081E089270895089580919A018823B9F0F5
:1020A00060E080E00E94050F0E944B100E94340FF8
:1020B00080919901882359F08091530490915404A0
:1020C0000E94F21E81369A4E10F00C94351008953D
:1020D0000F931F93CF93DF93C62FD42F022FFC01B2
:1020E00082818823C9F060939F010E94E61E90932D
:1020F0009E0180939D0180E28C0F883008F050C0D3
:10210000C77081E001C0880FCA95EAF7DF91CF91CF
:102110001F910F910C94D51410919F01161330C08C
:1021200080919D0190919E010E94F21E883C910534
:1021300038F5C0E2CD0F1D17B9F080E2810F88306D
:1021400040F4177081E001C0880F1A95EAF70E94E9
:10215000DC14C83048F481E09D2F977001C0880FCF
:102160009A95EAF70E94D514802F0E94C214C830B5
:10217000B8F4D77081E001C0880FDA95EAF70AC099
:1021800080E28C0F883060F4C77081E001C0880F56
:10219000CA95EAF7DF91CF911F910F910C94DC144F
:1021A000DF91CF911F910F9108959C01CB01203FAA
:1021B0004CE53407F9F078F4283DFCE53F07B9F029
:1021C000293D4CE5340711F1273D3C4531F526E228
:1021D00041EE61EE1EC0223FFCE53F0799F070F032
:1021E000233F3C45D1F427E245EE66EE12C027E2DC
:1021F00045EE0EC026E241EE60EE0BC027E245EE52
:1022000064EE07C026E241EE62EE03C028E241E040
:1022100065EE0E94681080E00895FC0182818823A9
:1022200019F010929F01089581E008951092B9006D
:102230008CE08093B8000895EF92FF920F931F9364
:10224000CF93DF93182FEB011092BC0084EA8093A8
:10225000BC000E94E61E7C019091BC0097FD0EC060
:10226000CF3F8FEFD807C1F30E94E61E8E199F095A
:102270008C179D0788F38EEF9FEF2EC09091B900C9
:10228000987F983041F09091B900987F903119F083
:102290008FEF9FEF21C01093BB0084E88093BC00B8
:1022A0000E94E61E8C019091BC0097FD0CC0CF3FB0
:1022B0008FEFD807C1F30E94E61E801B910B8C178D
:1022C0009D0788F3D8CF8091B900887F883111F0BD
:1022D0008034F1F680E090E0DF91CF911F910F9173
:1022E000FF90EF9008950F931F93CF93DF93EB012F
:1022F0008093BB0084E88093BC000E94E61E8C01A2
:102300009091BC0097FD0EC0CF3F8FEFD807C1F36F
:102310000E94E61E801B910B8C179D0788F38EEFA1
:102320009FEF0CC02091B900287F81E090E0283217
:1023300011F480E090E0919581959109DF91CF9122
:102340001F910F910895CF92DF92EF92FF920F931A
:102350001F93CF93DF936B018A017901B9010E942A
:102360001C11E6010C0D1D1DC017D10761F424E9F5
:102370002093BC00DF91CF911F910F91FF90EF90C0
:10238000DF90CF90089597FDF2CFB70189910E9419
:102390007311EACFCF92DF92EF92FF920F931F93C8
:1023A000CF93DF93C62F6A017901B8010E941C11F7
:1023B00097FD11C0B8018C2F0E947311E601EC0C3F
:1023C000FD1CCE15DF0539F097FD05C0B8018991D8
:1023D0000E947311F6CF24E92093BC00DF91CF91C6
:1023E0001F910F91FF90EF90DF90CF90089584E9B7
:1023F0008093BC0008959093A5018093A401089553
:10240000E091A401F091A501309721F00190F081B5
:10241000E02D099480E00895E091A401F091A501D8
:10242000309721F00280F381E02D099408952091E6
:10243000A2013091A3018217930771F09093A30139
:102440008093A201E091A401F091A501309721F0C1
:102450000680F781E02D099408952091A001309124
:10246000A1018217930771F09093A1018093A001BD
:10247000E091A401F091A501309721F00084F1854D
:10248000E02D0994089585B7806885BF85B7806879
:1024900085BF0895089508950C944B1208950C94E7
:1024A0004E120E9443120E944A120C944C1281E078
:1024B00008950E94DD1E0E94720780E00E94CD0EEA
:1024C0000E94661F0E94740D0C944F12AF92BF922F
:1024D000CF92DF92EF92FF920F931F93CF93DF93F0
:1024E000CDB7DEB72A970FB6F894DEBF0FBECDBFCB
:1024F0000E94BB07B82E0E945712811111C08FEFA6
:1025000089838A831B820E94E61E8160782F9D83C7
:102510008C8349815A816B818D810E94181356C02A
:1025200087EAC82E81E0D82E00E010E0A02E802F90
:102530000E946B07F82EF60141916F01E42EE82608
:1025400031F40F5F1F4F0530110581F7D8CF80910F
:10255000090281FD0E94710720E030E04E2D50E01D
:10256000822FBA01022E02C0759567950A94E2F790
:1025700060FF26C02E83AF8221E030E0690102C0F7
:10258000CC0CDD1C8A95E2F72F2D30E02C213D216B
:1025900081E0232B09F480E088870E94E61E816099
:1025A000782F9A8789874E815F8168858A850E9406
:1025B0001813F801E955FE4F8081C826C08206C075
:1025C0002F5F3F4F2430310559F6BBCF0E944C108E
:1025D000B1100E941C0F1091A6010E940012181742
:1025E000B1F00E9400128093A6012A960FB6F894CB
:1025F000DEBF0FBECDBFDF91CF911F910F91FF9036
:10260000EF90DF90CF90BF90AF900C94D3022A96BA
:102610000FB6F894DEBF0FBECDBFDF91CF911F91F3
:102620000F91FF90EF90DF90CF90BF90AF90089503
:10263000CF93DF93CDB7DEB72B970FB6F894DEBFFD
:102640000FBECDBF4F83588769877A878B87DE019E
:10265000119686E0FD0111928A95E9F785E0FE0169
:10266000379601900D928A95E1F749815A816B81E5
:102670007C818D819E810E94C2192B960FB6F894A1
:10268000DEBF0FBECDBFDF91CF910895FC018081E9
:1026900091810E948C1C0895882309F413C1682F2E
:1026A0008238C1F40E94001281FD0CC169E380915F
:1026B0001701909118010E943B1E0E94171D2FEFD9
:1026C00081EE94E0215080409040E1F700C000008E
:1026D00069E319C08338F9F40E94001280FDF2C04A
:1026E00063E580911701909118010E943B1E0E94A2
:1026F000171D2FEF81EE94E0215080409040E1F7CC
:1027000000C0000063E580911701909118010E94BC
:102710003D1E0C94171D8438C1F40E94001282FDE6
:10272000D1C067E480911701909118010E943B1E6F
:102730000E94171D2FEF81EE94E0215080409040C1
:10274000E1F700C0000067E4DECF8CEF860F813A2E
:1027500038F480911701909118010E943B1ED9CF47
:1027600080E2860F883048F4677081E001C0880FEE
:102770006A95EAF70E94CE1CCCCF8BE5860F83309A
:1027800070F4653A29F0663A31F083E890E005C0CC
:1027900081E890E002C082E890E00C94171288E58E
:1027A000860F873108F08EC0683A09F445C0693A4F
:1027B00009F445C06A3A09F445C06B3A09F445C0CA
:1027C0006C3A09F445C06B3B09F445C06C3B09F415
:1027D00045C06D3A09F445C0603B09F445C06E3A06
:1027E00009F445C06F3A09F445C0613B09F445C09E
:1027F000623B09F445C0633B09F445C0643B09F4FE
:1028000045C0653B09F445C0663B09F445C0673BDC
:1028100009F445C0683B09F445C0693B09F445C06B
:102820006D3B09F445C06E3B09F445C06A3B09F4B1
:1028300045C080E090E044C082EE90E041C089EE67
:1028400090E03EC08AEE90E03BC085EB90E038C05F
:1028500086EB90E035C083EB90E032C084EB90E0F3
:102860002FC087EB90E02CC08CEC90E029C08DEC61
:1028700090E026C083E891E023C08AE891E020C080
:1028800082E991E01DC084E991E01AC081E292E002
:1028900017C083E292E014C084E292E011C085E2A6
:1028A00092E00EC086E292E00BC087E292E008C0A0
:1028B0008FE690E005C080E790E002C08AE292E0F7
:1028C0000C942D120895882309F45BC0682F823878
:1028D00079F40E94001281FF54C069E380911701CE
:1028E000909118010E943B1E0E94171D69E310C0C1
:1028F0008338B1F40E94001280FF43C063E58091E9
:102900001701909118010E943B1E0E94171D63E55C
:1029100080911701909118010E943D1E0C94171D83
:10292000843879F40E94001282FF2BC067E4809102
:102930001701909118010E943B1E0E94171D67E429
:10294000E7CF8CEF860F813A18F380E2860F88304C
:1029500048F4677081E001C0880F6A95EAF70E9429
:10296000D41CDCCF8BE5860F833020F480E090E030
:102970000C941712685A673120F480E090E00C94B0
:102980002D120895CF93C82F0E944C13C93349F4D8
:102990002FEF87EE93E0215080409040E1F700C098
:1029A00000008C2FCF910C946314882321F00E9497
:1029B000CE1C0C94171D0895882321F00E94D41C6E
:1029C0000C94171D0895BF92CF92DF92EF92FF9261
:1029D0000F931F93CF93DF937C01062FC72FFC012A
:1029E000D581D295DF70128111110E94EB1C0E94DB
:1029F000C41C882379F0112369F080E2800F8830AD
:102A000048F082E00E94621D0E94C41C91E0B82E32
:102A1000B92601C0B12CCC2EC2948FE0C822D12C93
:102A2000F601E859FF4F0C940E268C2F807FCF7053
:102A3000882311F0C295C07F112399F0CC2309F4AB
:102A40006CC180E2800F883010F0011104C08C2F1F
:102A50000E94CE1C03C08C2F0E94DE1C0E94171DFA
:102A60005CC1802F0E946314CC2309F47BC180E2F7
:102A7000800F883010F0011104C08C2F0E94D41CEC
:102A800003C08C2F0E94E41C0E94171D6BC18C2F69
:102A9000807FCF70803211F0C295C07F002319F083
:102AA0000130C9F022C0112371F0DD2341F0D13093
:102AB00031F40E94FE1C8C2B0E94041D53C10E9405
:102AC000FE1C8C2B1DC0DD2319F0D13009F44AC146
:102AD0000E940D1D25C0112321F0D63008F042C1FF
:102AE0000EC0D53008F03EC11BC0112361F0DD23BC
:102AF00031F0F701858180FF10C18F7085838C2FA5
:102B00000E94D5142FC1DD2359F0093309F016C1F5
:102B1000FFEF27EE83E0F15020408040E1F70CC149
:102B20008C2F0E94DC141EC18C2F837009F049C0C9
:102B300011111FC1402F429546954770440F440F15
:102B4000602F6F70862F90E0A0E0B0E0042E04C0EC
:102B5000880F991FAA1FBB1F0A94D2F704FF10C049
:102B60000FE010E020E030E004C0000F111F221F32
:102B7000331F4A95D2F7009510952095309503C0E4
:102B800000E010E09801C695C695C370D0E0BC0186
:102B9000CD01602B712B822B932BC230D10559F0C4
:102BA000C330D10559F0219719F00E94071BE1C0ED
:102BB0000E94F51ADEC00E94191BDBC00E94F31AA6
:102BC000D8C0112319F08C2F817001C086958823FD
:102BD00009F4CFC0402F429546954770440F440FEB
:102BE000602F6F70862F90E0A0E0B0E0042E04C04C
:102BF000880F991FAA1FBB1F0A94D2F704FF10C0A9
:102C00000FE010E020E030E004C0000F111F221F91
:102C1000331F4A95D2F7009510952095309503C043
:102C200000E010E09801C695C695C370D0E0BC01E5
:102C3000CD01602B712B822B932BC230D10559F023
:102C4000C330D10559F0219719F00E94CD1B91C0D6
:102C50000E94BB1B8EC00E94DF1B8BC00E942E1BDC
:102C600088C0CF70112339F08C2F0E94541B802F05
:102C70000E94D5147EC0802F0E94DC148C2F0E94ED
:102C8000751B77C0023F01F128F4003F41F0013F7E
:102C9000A1F03FC0033FF9F0043F39F13AC01123DE
:102CA00041F0D53008F05EC08C2F8F710E949A1BC6
:102CB00059C0D63008F056C0F7CF112339F08C2F09
:102CC0008F710E94541B4EC01123C9F38C2F8F713A
:102CD0000E94751B47C0112329F08C2F8F710E9411
:102CE0003F1B40C00E943A1B3DC0112349F0CF71E9
:102CF0008C2F0E94541B63E08C2F0E944D1D32C00C
:102D000081E00E94621DD23068F182E00E94621D63
:102D100029C0112331F0DD2391F2802F0E944C1342
:102D200021C0DD2399F2093349F49FEFE7EEF3E088
:102D30009150E040F040E1F700C00000802F0E9479
:102D4000631410C04C2F4F70602FC7010E94F00415
:102D50000E94661A12C04C2F4F70602FC7010E944C
:102D6000F3040BC028E0C21AD10884E0C816D104CD
:102D700020F40E9400120E94D302BB20D1F00E94D6
:102D8000C01C80FD16C0F70112820E94BA1C0E946E
:102D9000541BC7010E94E3160E94BA1CDF91CF9119
:102DA0001F910F91FF90EF90DF90CF90BF900C9408
:102DB000751BDF91CF911F910F91FF90EF90DF90E6
:102DC000CF90BF9008950F931F93CF93DF93EC01A3
:102DD000888199812B813C81232BB9F09F3F11F48D
:102DE0008F3F99F0CE010E94E502882371F068813F
:102DF00079818A810E94971C8C010E94F11B0E949C
:102E0000F21AB801CE010E94E314DF91CF911F9115
:102E10000F9108950E94EB1C0E94FB1C0C94171D3F
:102E200080911701909118010E943F1E0C940A177F
:102E30000E94DB1C0C941017E92FE295EF70F0E074
:102E40003297EE30F105B0F4E858FF4F0C940E269F
:102E5000803F91F018F4883E68F40EC0843F51F42E
:102E60000BC0883E48F0813F29F406C093FB8827B9
:102E700080F9089580E0089581E008950E948C1CF7
:102E80000E941C170895CF93DF9300D000D01F92AB
:102E9000CDB7DEB70F900F900F900F900F90DF918E
:102EA000CF910895CF93DF9300D000D000D0CDB75D
:102EB000DEB726960FB6F894DEBF0FBECDBFDF910A
:102EC000CF9108951F93CF93DF93C091AD0116E08A
:102ED0008091AE01C81799F0D0E01C9FF0011D9FB2
:102EE000F00D1124E155FE4F4081518162817381C3
:102EF000848195810E9452172196C770E9CFDF9196
:102F0000CF911F9108954091DF015091E0016091B0
:102F1000E1017091E2018091E3019091E4010C9450
:102F200052178091E40182958F7009F054C080910E
:102F3000E101882309F44FC08091AD01A091AE0159
:102F40006091DF017091E0014091E2015091E30155
:102F5000B6E08A1709F43FC090E041155105C1F170
:102F60007F3F11F46F3FA1F1B89FF001B99FF00DC1
:102F70001124E155FE4F218172132AC02081621372
:102F800027C02281211124C02381348124173507D1
:102F900010F421503109241B350B283C3105C0F4B5
:102FA0002091E4012F7020612093E40126E0289F06
:102FB000F001299FF00D1124EC54FE4F80818F7099
:102FC000806180838FED91E00E94E3160C9462177C
:102FD00001968770BECF0895CF92DF92EF92FF9255
:102FE0000F931F93CF93DF93CDB7DEB762970FB6E2
:102FF000F894DEBF0FBECDBF8C0185E0F801DE0185
:103000001D9601900D928A95E1F7D8014C91119689
:103010005C91119712966C9112971396CD90DC905B
:1030200014973091DF017091E0018091E20190915D
:10303000E301009709F46BC17F3F19F43F3F09F4A6
:1030400066C1E090E101EE2009F4C0C02091E401E6
:10305000C816D90628F0F601E81BF90BCF0104C009
:10306000809590958C0D9D1DFF24F394883C9105CF
:1030700078F0F12C207F09F0C6C07C2DD98AC88A4F
:1030800089890E9443178FED91E00E94E316B1C039
:10309000822F807F09F046C0751314C0341312C00C
:1030A000611110C02F7020612093E4010E948317EA
:1030B0008FED91E00E94E3168091E401D80115960E
:1030C0008C932EC0CD2819F15F3F11F44F3FF9F0DA
:1030D000F62E61111CC08091AD012091AE0136E049
:1030E000821709F45AC090E0389FF001399FF00D23
:1030F0001124E155FE4F7181571306C070814713AB
:1031000003C07281711103C001968770E9CFF62E5A
:10311000662309F427C18091E40181608093E40172
:10312000F12C20C1751308C0341306C0611104C00E
:103130008091E401D801C3C04D875E878D859E854F
:103140006A8B0E943E176A898823E1F16623D1F1D8
:103150002091E401822F82958F7090E0029774F0A5
:103160008091DF019091E00198878F831986DB863B
:10317000CA862C87CE0107960E94E31686E0F801E6
:10318000AFEDB1E001900D928A95E1F70E949117A1
:103190000E948317FF24F394E5C04D875E878D85D9
:1031A0009E850E948C1C292F22952F7030E02230A2
:1031B00031050CF0CBC09F7009F0C5C0805E88302F
:1031C00008F4D0C0C8010E94E316E4CFC816D9069F
:1031D00008F453C0F601E81BF90BCF01883C9105B8
:1031E00008F450C0F12C7C2DD98AC88A89890E94A4
:1031F0004317EFEDF1E086E0DF011D928A95E9F7D4
:103200000E948317AFC0751314C0341312C061112C
:1032100010C08091E401F8018583C8010E94E31683
:1032200086E0EFEDF1E0DF011D928A95E9F7FE2CD3
:1032300099C04D875E878D859E856A8B0E943E175B
:103240006A89882309F4BECF662309F4BBCF209195
:10325000E401822F82958F7090E002970CF48ECF5C
:103260008091DF019091E0019A8389831B82DD8246
:10327000CC822E83CE0101967FCF809590958C0DC8
:103280009D1DACCFF62E662309F49CCF75132EC07E
:1032900034132CC02091E40120FD1FC0822F8295A1
:1032A0008F70D9F0D80115962C9315978F3049F06F
:1032B0008F5F982F9295907F822F8F70892B159614
:1032C0008C93C8010E94E31686E0F801AFEDB1E0EF
:1032D00001900D928A95E1F793CF86E0F801AFED6A
:1032E000B1E001900D928A95E1F73CC04D875E8771
:1032F0008D859E850E943E17811140CF8091E4010B
:1033000081608093E401C8010E94E3162BC066230C
:1033100009F458CF4D875E878D859E850E943E17A4
:10332000F82E882309F44ECF86E0F801AFEDB1E026
:1033300001900D928A95E1F78FED91E00E9446137E
:103340000E9491175DCF811139CF0CC02430310517
:103350000CF038CF9F7009F431CFF8019581907F40
:1033600009F02CCF8F2D62960FB6F894DEBF0FBEFA
:10337000CDBFDF91CF911F910F91FF90EF90DF9024
:10338000CF9008951F93CF93DF93CDB7DEB72C97DF
:103390000FB6F894DEBF0FBECDBF4F835887698745
:1033A0007A878B879C87CE0107960E94EC1788232B
:1033B00069F08F8198852A853B85232BF1F19F3F0A
:1033C00009F063C08F3F09F060C037C086E0FE019E
:1033D0003796DE01119601900D928A95E1F76F8183
:1033E0007885EA85FB85309741F17F3F11F46F3F87
:1033F00021F12091AE0130E0C90101968770992733
:103400004091AD0150E08417950709F447C06983E6
:103410007A83FD83EC8396E0929FD001939FB00D59
:103420001124A155BE4FFE01319601900D929A953F
:10343000E1F78093AE010E94621716E08091AD0122
:103440009091AE018917C1F1189FC00111248155D7
:103450009E4F0E94EC17882379F1E091AD011E9FE9
:10346000F0011124E155FE4F408151816281738149
:10347000848195810E9452178091AD0190E0019660
:10348000877099278093AD01D9CF4F815885698581
:103490007A858B859C850E945217CFCF0E94181782
:1034A0001092AE011092AD01EFEDF1E086E0DF0188
:1034B0001D928A95E9F7C1CF2C960FB6F894DEBF1E
:1034C0000FBECDBFDF91CF911F910895EF92FF9274
:1034D0000F931F93CF93DF938C01892B09F46CC05A
:1034E000F12CEE24E394E8012196F80184918437CD
:1034F00040F4843008F051C0813081F0823019F1FD
:103500005BC0853709F444C0A8F19CE7980F903759
:1035100008F052C08F770E94631441C00E5F1F4FA6
:10352000FE01C49180E28C0F883048F4C7708E2D64
:1035300001C0880FCA95EAF70E94EE1C14C08C2FB8
:103540000E944C132DC00E5F1F4FFE01C49180E2FC
:103550008C0F883058F4C7708E2D01C0880FCA9523
:10356000EAF70E94F41C0E94171D1AC08C2F0E94BB
:10357000631416C00E5F1F4FFE01C491CC2381F06F
:103580008FE99FE00197F1F700C00000C150F6CF2E
:103590000E5F1F4FFE01F49003C00E944C138E017A
:1035A0008F2D882309F49FCFEFE9FFE03197F1F7E2
:1035B00000C000008150F5CFDF91CF911F910F9196
:1035C000FF90EF90089508950C94E31A0E94E41A76
:1035D0006093F8017093F9018093FA019093FB01D5
:1035E0000C940A1708950C94E61A0F931F930091F8
:1035F000F8011091F9012091FA013091FB01602B43
:10360000712B822B932B1F910F910C94E61A0F9321
:103610001F930091F8011091F9012091FA01309166
:10362000FB0160237123822393231F910F910C943C
:10363000E61A0F931F930091F8011091F901209160
:10364000FA013091FB0160277127822793271F9190
:103650000F910C94E61A08950C942B1B0E942C1BBE
:103660006093F4017093F5018093F6019093F70154
:103670000C940A1760E070E0CB010C942E1B0F93A2
:103680001F9341E050E060E070E08A019B0104C0BC
:10369000000F111F221F331F8A95D2F7C901B801ED
:1036A0001F910F910C942E1B0F931F9341E050E03C
:1036B00060E070E004C0440F551F661F771F8A95B5
:1036C000D2F78091F4019091F501A091F601B091AB
:1036D000F7018A019B01082B192B2A2B3B2BC901CF
:1036E000B8011F910F910C942E1B0F931F9341E073
:1036F00050E060E070E004C0440F551F661F771F64
:103700008A95D2F740955095609570958091F40117
:103710009091F501A091F601B091F7018A019B010A
:10372000082319232A233B23C901B8011F910F91B4
:103730000C942E1B0F931F9341E050E060E070E06B
:1037400004C0440F551F661F771F8A95D2F78091DA
:10375000F4019091F501A091F601B091F7018A0171
:103760009B01082719272A273B27C901B8011F9168
:103770000F910C942E1B0F931F930091F401109145
:10378000F5012091F6013091F701602B712B822B0E
:10379000932B1F910F910C942E1B0F931F9300914D
:1037A000F4011091F5012091F6013091F7016023A9
:1037B0007123822393231F910F910C942E1B0F933F
:1037C0001F930091F4011091F5012091F6013091C1
:1037D000F70160277127822793271F910F910C947F
:1037E0002E1B0895990F990F890FA82FA695A695BE
:1037F000A695877051E001C0550F8A95EAF785E0DC
:10380000A89FD001112420E030E070E0F901EA0F18
:10381000FB1FEB51FE4F4081CB01022E02C096955B
:1038200087950A94E2F781709927819584278523EB
:10383000842780832F5F3F4F2530310539F7089566
:10384000990F990F890F682F669566956695982F41
:10385000977085E0689FB001112440E050E080E05F
:10386000FA01E60FF71FEB51FE4F208130E0092EE1
:1038700002C0369527950A94E2F721703327042E6B
:1038800001C0220F0A94EAF7822B4F5F5F4F453049
:10389000510531F70895BF92CF92DF92EF92FF92D8
:1038A0000F931F93CF93DF938C01C090F801D090BA
:1038B000F901E090FA01F090FB018091F401909100
:1038C000F501A091F601B091F701C82AD92AEA2A98
:1038D000FB2ACFE1D0E0D701C6010C2E04C0B6957B
:1038E000A795979587950A94D2F780FF07C0BC2EBD
:1038F000B8018C2F0E941005019719F4219758F7F1
:10390000B12C8B2DDF91CF911F910F91FF90EF90F4
:10391000DF90CF90BF900895CF93DF93EC010E948A
:103920004B1CBE010E941005DF91CF9108951F939B
:10393000CF93DF93EB019091AC01992321F0CB0160
:103940000E948C1C13C0882349F0CB010E944B1CA1
:10395000182F682FCE010E94F21B04C0CB010E94D9
:10396000201C182FBE01812F0E941005DF91CF91DE
:103970001F9108958091FC01859585958595089501
:103980008091FC01877008959091FC01977081E00F
:1039900009F480E00895809108020895909108024A
:1039A000892B8093080208958095909108028923BD
:1039B00080930802089510920802089590910702DA
:1039C000892B80930702089580959091070289239F
:1039D00080930702089510920702089590910602BD
:1039E000892B809306020895809590910602892381
:1039F0008093060208951092060208958091FD01B9
:103A0000089508950C94011D9091FD01981721F0DF
:103A10008093FD010C94021D08958091FD0188237F
:103A200029F01092FD0180E00C94021D0895E091B0
:103A30001701F0911801809108028083E09117012D
:103A4000F0911801908180910702892B8083E09189
:103A50001701F0911801908180910602892B8083D3
:103A60008091FD01882381F0E0911701F091180108
:103A70009081892B808380911701909118010E9479
:103A8000091E81110E940D1D80911701909118014E
:103A90000C940C1208950C944A1D98E0899F900193
:103AA0001124262B2093FC010E94541B8091FC01C1
:103AB0008595859585950C944B1D1092FC0180E0B1
:103AC0000C944B1D2091FC01809582238093FC0176
:103AD000982F977079F430E0482F082E000C550B82
:103AE0002417350739F08595859585950E94751BB6
:103AF0000C945D1D08956FEF7FEF80E090E00C94D3
:103B0000532680E090E00E942F2621E08D3E9E4FBC
:103B100009F020E0822F089582E090E00C942126A5
:103B200083E090E00C94212684E090E00C94212620
:103B3000682F84E090E00C943526AB01BC018FE047
:103B400090E00C944726AB01BC0183E190E00C941B
:103B5000472660E070E0CB010C94A31D60E070E0AC
:103B6000CB010E949D1D0C94A91D6DEE7EEF80E09F
:103B700090E00E94532660E082E090E00E943526AB
:103B800060E083E090E00E9435261092F8011092E8
:103B9000F9011092FA011092FB0160E084E090E0DC
:103BA0000E94352660E085E090E00E94352660E0C6
:103BB00086E090E00E9435266FEF87E090E00E945B
:103BC000352640E050E0BA0188E090E00E944726A8
:103BD00060E08DE090E00E94352640E050E0BA01C0
:103BE00088E190E00E94472660E087E190E00E9433
:103BF000352640E050E0BA018CE190E00E94472673
:103C000060E080E290E00E9435260C94AE1D0C949A
:103C1000B51DFC01329697E080E0915029F021918A
:103C20002223D9F38F5FF9CF08959C01FC013296CE
:103C30009FEF80E04191461789F09F3F19F44111B1
:103C400001C0982F8F5F8630A9F79F3F39F0F901A7
:103C5000E90FF11D97FDFA95628308950895FC011F
:103C6000329608962081261301C010823196E817FB
:103C7000F907C1F708950C94151E0C942F1E029697
:103C800026E0FC0111922A95E9F7089508950C9415
:103C9000461E0E94471E80916104843009F439C099
:103CA00010920A0220E488E190E00FB6F894A895FB
:103CB000809360000FBE2093600080E00E94D302DA
:103CC0000E94B40D80910B0281110AC081E08093A3
:103CD0000B0280911802817080930C020E94E20C0A
:103CE0000E94471E83B7817F846083BF83B7816052
:103CF00083BF7894889583B78E7F83BF0FB6F8947F
:103D0000A8958091600088618093600010926000A7
:103D10000FBE089508950895CF930E948A1E0E94B1
:103D2000BB070E948B1EC0E08C2F0E946B07811185
:103D300004C0CF5FC530C1F701C081E0CF910895C5
:103D400008950C94A01E0E9418170E9400120E9451
:103D5000D30210920B0280910C0281110E94AC0DD3
:103D60000E94F40C0C94A11E1F920F920FB60F929A
:103D700011248F939F93AF93BF9380910A02811177
:103D800013C08091570490915804A0915904B091A8
:103D90005A044196A11DB11D809357049093580475
:103DA000A0935904B0935A04BF91AF919F918F9102
:103DB0000F900FBE0F901F90189582E084BD93E086
:103DC00095BD9AEF97BD80936E0008952FB7F89434
:103DD0008091570490915804A0915904B0915A04CD
:103DE0002FBF0895CF92DF92EF92FF920F931F9310
:103DF0002FB7F8944091570450915804609159049A
:103E000070915A042FBF6A017B01EE24FF248C01BC
:103E100020E030E0C016D106E206F30610F441506F
:103E200051099A01281B390BC9011F910F91FF906D
:103E3000EF90DF90CF90089578941F920F920FB675
:103E40000F9211248F939F93AF93BF938091570448
:103E500090915804A0915904B0915A040196A11D63
:103E6000B11D8093570490935804A0935904B093C4
:103E70005A04BF91AF919F918F910F900FBE0F90F9
:103E80001F90189581E08093E00080E28093D80035
:103E90001092C9008FE19EE40197F1F700C0000085
:103EA00087E090EBDC0180936A0490936B04A0930D
:103EB0006C04B0936D049CE088E10FB6F894A8956B
:103EC000809360000FBE90936000FFCF0E94811D21
:103ED000811102C00E94071E0E948C1D809309025E
:103EE0000E94941D90E090935C0480935B040E9478
:103EF000901D682F70E080E090E00C94F31A8091A0
:103F000015020895089508950895CF93DF93EC0165
:103F10000E942D21823011F0843039F581E08093A8
:103F2000E9008FEF9091E800815095FD06C095ED76
:103F30009A95F1F700008111F5CF8091E80085FF97
:103F400014C040E050E068E070E0CE010E944A21D9
:103F50008091E8008E778093E80088E0FE01ADE074
:103F6000B2E001900D928A95E1F7DF91CF9108952B
:103F700080916004811109C00E94DF220E943C23CD
:103F80008091E20084608093E200089510926004C2
:103F90000895089508950C94A31E42E061EC81E019
:103FA0000C94592280916304833009F460C030F48A
:103FB000813071F0823009F499C008958A3009F493
:103FC00085C08B3009F46BC0893009F0A7C020C0D0
:103FD00080916204813A09F0A1C08091E800877F56
:103FE0008093E8008091660490916704892B21F406
:103FF00068E08DE092E003C060E080E090E070E077
:104000000E9495218091E8008B778093E8000895C5
:1040100080916204813209F081C0809166049091A0
:104020006704892B09F07AC08091E800877F80932C
:10403000E8008091E80082FD05C080916104811153
:10404000F8CF6CC02091F3008091F20090E0922BA9
:10405000029729F48091F1008B7F813021F48091C7
:10406000F100809315028091E8008B7753C0809116
:104070006204813A09F052C080916604909167040D
:10408000892B09F04BC08091E800877F8093E8007E
:104090008091E80080FFFCCF8091230136C08091A1
:1040A00062048132D9F58091660490916704892B6E
:1040B000A9F58091E800877F8093E8000E948E2216
:1040C00080916404809323010C94181780916204FA
:1040D000813221F58091E800877F8093E8000E947B
:1040E0008E22809165048093160208958091620467
:1040F000813AA1F48091E800877F8093E800809165
:10410000E80080FFFCCF809116028093F10080913F
:10411000E8008E778093E8000C948E22089584B78F
:10412000877F84BF0FB6F894A8958091600088615E
:1041300080936000109260000FBE80E88093610061
:10414000109261000E9451120E94DF220E943C23C3
:104150008091E20084608093E20078940E94CB25F5
:104160000E94591289E191E00E94FB118091610443
:10417000853069F40E94491E80915F048823B1F361
:104180000E948C1E882391F30E943421EFCF0E945D
:1041900066120E94B70DEACF0C94CE20292F332748
:1041A00023303105C1F05CF42130310579F0223043
:1041B0003105D1F582E290E02DED33E039C02132B6
:1041C000310521F12232310541F12EC082E190E02A
:1041D0002FEF33E02DC099278130910571F02CF439
:1041E000892B11F5E9EDF3E00DC08230910541F026
:1041F0000397D1F4EBEAF3E005C0E7ECF3E002C08B
:10420000E1EBF3E0849190E09F0112C0672B61F431
:1042100089E090E02FEE33E00BC0672B29F480E4B7
:1042200090E021E134E004C080E090E020E030E064
:10423000FA013183208308950895CF93C82F0E94F7
:104240001C21C0931702CF9108958091610484309E
:1042500011F081E0089582E00895809117028111A4
:1042600002C00C942521089580E189BD82E189BDB9
:1042700009B400FEFDCF8091D8008F7D8093D800D7
:104280008091E00082608093E0008091E00081FDF9
:10429000FCCF0895CF92DF92EF92FF920F931F937E
:1042A000CF93DF93EC018B016A010E94AD22811153
:1042B00033C0C114D10439F0F60180819181081B0B
:1042C000190BC80FD91FE12CF12C0115110519F19B
:1042D0008091E80085FD16C08091E8008E7780937C
:1042E000E800C114D10449F0F60180819181E80E03
:1042F000F91EF182E08285E00FC00E94AD22882382
:1043000021F30AC089918093F10001501109FFEF58
:10431000EF1AFF0ADACF80E0DF91CF911F910F9162
:10432000FF90EF90DF90CF90089520916804309136
:1043300069042617370748F06115710539F4209193
:10434000E8002E772093E80001C0B90140E0611534
:104350007105A9F120916104222309F443C025309D
:1043600009F442C02091E80023FD40C02091E800FC
:1043700022FD32C02091E80020FFE9CF4091F300F8
:104380002091F20030E0342BFC01CF016115710562
:1043900059F02830310540F481918093F10061504B
:1043A00071092F5F3F4FF1CF41E02830310509F00F
:1043B00040E02091E8002E772093E800C8CF41111B
:1043C000C9CF0AC080916104882361F0853061F013
:1043D0008091E80083FD0AC08091E80082FFF2CF5F
:1043E00080E0089582E0089583E0089581E00895D3
:1043F00020916804309169042617370748F0611549
:10440000710539F42091E8002E772093E80001C06F
:10441000B901FC0120E06115710591F18091610401
:10442000882309F440C0853009F43FC08091E8003A
:1044300083FD3DC08091E80082FD2FC08091E8009F
:1044400080FFE9CF2091F3008091F20090E0922B61
:104450006115710559F08830910540F4249120933D
:10446000F1003196615071090196F2CF21E0089771
:1044700009F020E08091E8008E778093E800CBCFB0
:104480002111CCCF0AC080916104882361F085306E
:1044900061F08091E80083FD0AC08091E80082FF0E
:1044A000F2CF80E0089582E0089583E0089581E0EE
:1044B0000895982F973058F59093E900981739F0A0
:1044C0007091EC002091ED005091F00003C0242F7A
:1044D000762F50E021FF19C03091EB003E7F3093E2
:1044E000EB003091ED003D7F3093ED003091EB001B
:1044F00031603093EB007093EC002093ED0050930B
:10450000F0002091EE0027FF07C09F5FD3CF8F7090
:104510008093E90081E0089580E00895809162042D
:1045200087FF11C08091E80082FD05C08091610481
:104530008111F8CF11C08091E8008B770BC080917A
:104540006104882349F08091E80080FFF8CF8091D2
:10455000E8008E778093E80008952091E400309180
:10456000E50095E64091EC00842F817040FF22C069
:104570008091E80080FD1CC080916104882391F047
:10458000853091F08091EB0085FD10C04091E400F2
:104590005091E5004217530729F39A01915011F702
:1045A00084E0089582E0089583E0089581E008950D
:1045B00080E008954091E80042FFDECF08950E9418
:1045C0004D230E945523E0EEF0E0808181608083DE
:1045D000E8EDF0E080818F77808319BCA7EDB0E033
:1045E0008C918E7F8C9380818F7E8083109260046B
:1045F00008950F931F93CF93DF930E944D230E9442
:104600005523C8EDD0E088818F77888388818068C2
:10461000888388818F7D888319BC109261041092F1
:104620005D0410925F0410925E0400EE10E0F80149
:1046300080818B7F808388818160888342E060E015
:1046400080E00E945922E1EEF0E080818E7F80833D
:10465000E2EEF0E0808181608083808188608083E9
:10466000F80180818E7F8083888180618883DF91DB
:10467000CF911F910F910895E8EDF0E080818F7E3A
:104680008083E7EDF0E080818160808384E082BFF9
:1046900081E0809360040C94F922E8EDF0E08081E1
:1046A0008E7F80831092E20008951092DA001092BB
:1046B000E10008951F920F920FB60F9211242F93CD
:1046C0003F934F935F936F937F938F939F93AF939A
:1046D000BF93EF93FF938091E10082FF0BC0809125
:1046E000E20082FF07C08091E1008B7F8093E100B0
:1046F0000E94CA258091DA0080FF1FC08091D800F7
:1047000080FF1BC08091DA008E7F8093DA00809159
:10471000D90080FF0DC080E189BD82E189BD09B467
:1047200000FEFDCF81E0809361040E94B81F05C0A8
:1047300019BC109261040E94C61F8091E10080FFA5
:1047400019C08091E20080FF15C08091E2008E7F49
:104750008093E2008091E20080618093E20080918A
:10476000D80080628093D80019BC85E080936104F2
:104770000E94CA1F8091E10084FF30C08091E20056
:1047800084FF2CC080E189BD82E189BD09B400FEAF
:10479000FDCF8091D8008F7D8093D8008091E1007B
:1047A0008F7E8093E1008091E2008F7E8093E20013
:1047B0008091E20081608093E20080915D04882313
:1047C00011F084E007C08091E30087FD02C081E022
:1047D00001C083E0809361040E94CB1F8091E100BF
:1047E00083FF29C08091E20083FF25C08091E10012
:1047F000877F8093E10082E08093610410925D04E2
:104800008091E1008E7F8093E1008091E2008E7FB5
:104810008093E2008091E20080618093E20042E0B8
:1048200060E080E00E9459228091F00088608093CF
:10483000F0000E94C91FFF91EF91BF91AF919F912E
:104840008F917F916F915F914F913F912F910F9039
:104850000FBE0F901F9018951F920F920FB60F92D8
:1048600011242F933F934F935F936F937F938F9375
:104870009F93AF93BF93CF93DF93EF93FF93C09139
:10488000E900CF708091EC00D82FD17080FDD0E886
:104890001092E9008091F000877F8093F000789477
:1048A0000E9470241092E9008091F000886080934B
:1048B000F000CD2BCF70C093E900FF91EF91DF9115
:1048C000CF91BF91AF919F918F917F916F915F91A8
:1048D0004F913F912F910F900FBE0F901F90189501
:1048E0001F93CF93DF93CDB7DEB7AA970FB6F89497
:1048F000DEBF0FBECDBFE2E6F4E088E08E0F909100
:10490000F10091938E13FBCF0E94D21F8091E8009B
:1049100083FF28C18091620490916304492F50E085
:104920004A30510508F01EC1FA01EA57FF4F0C94B6
:104930000E26803821F0823809F014C108C0809119
:104940005E0490915F04992389F082600FC080918A
:1049500066048F70873008F005C18093E90080916C
:10496000EB0085FB882780F91092E9009091E80020
:10497000977F9093E8008093F1001092F100D0C0EF
:10498000282F2D7F09F0EEC0882319F0823061F0C6
:10499000E9C080916404813009F0E4C0933009F0EB
:1049A00080E080935F042EC08091640481112AC04E
:1049B000809166048F702FEF280F263008F0D2C048
:1049C0008093E9002091EB0020FF1CC0933021F47C
:1049D0008091EB00806214C09091EB009061909305
:1049E000EB0021E030E0A90102C0440F551F8A9579
:1049F000E2F74093EA001092EA008091EB008860B1
:104A00008093EB001092E9008091E800877F80930B
:104A1000E8000E948E22A6C08111A4C010916404F7
:104A20001F778091E3008078812B8093E300809151
:104A3000E800877F8093E8000E948E228091E80042
:104A400080FFFCCF8091E30080688093E300111128
:104A500002C082E001C083E08093610483C080587B
:104A6000823008F07FC080916404909165048C3D91
:104A700053E0950779F583E08A838AE289834FB70B
:104A8000F894DE01139620E03EE051E2E32FF0E0DF
:104A900050935700E49120FF03C0E295EF703F5F11
:104AA000EF708E2F90E0EA3010F0C79601C0C096EC
:104AB0008D939D932F5F243149F74FBF8091E8007C
:104AC000877F8093E8006AE270E0CE0101960E9441
:104AD000952115C06091660470916704AE014F5F27
:104AE0005F4F0E94CC20BC01892BE1F19091E8003E
:104AF000977F9093E80089819A810E94F8218091A4
:104B0000E8008B778093E8002DC0803859F58091BC
:104B1000E800877F8093E80080915D048093F10036
:104B20008091E8008E7773CF81111CC0909164044E
:104B30009230C0F48091E800877F8093E8009093E2
:104B40005D040E948E2280915D04811106C08091D7
:104B5000E30087FD02C081E001C084E0809361042E
:104B60000E94CD1F8091E80083FF0AC08091E80079
:104B7000877F8093E8008091EB0080628093EB0058
:104B8000AA960FB6F894DEBF0FBECDBFDF91CF91CE
:104B90001F9108950895CF93809161048823A1F017
:104BA000C091E900CF709091EC00892F817090FD49
:104BB00080E8C82B1092E9008091E80083FD0E94F4
:104BC0007024CF70C093E900CF910895AA1BBB1B3E
:104BD00051E107C0AA1FBB1FA617B70710F0A61BFD
:104BE000B70B881F991F5A95A9F780959095BC011E
:104BF000CD01089597FB072E16F4009407D077FD9A
:104C000009D00E94E62507FC05D03EF490958195D9
:104C10009F4F0895709561957F4F0895EE0FFF1F88
:104C20000590F491E02D0994FC014150504030F082
:104C300001900616D1F73197CF010895882799275B
:104C40000895F999FECF92BD81BDF89A992780B554
:104C50000895A6E1B0E044E050E00C945B26A8E1A2
:104C6000B0E042E050E00C945B26262FF999FECF8D
:104C700092BD81BDF89A019700B4021639F01FBAAF
:104C800020BD0FB6F894FA9AF99A0FBE08950396CC
:104C9000272F0E9436260E943526252F0E94362671
:104CA000242F0C9436260196272F0E9436260C942A
:104CB0003526DC01CB01FC01F999FECF06C0F2BD1F
:104CC000E1BDF89A319600B40D9241505040B8F7CA
:064CD0000895F894FFCFE7
:104CD600010212121201191A1B1C1D1E1F2021226D
:104CE6000021007F220003FE017F1F851F821F8394
:104CF6001F841F01F4F5F6F7946697C63400010287
:104D06000202020606060909090909090F0F0F0F13
:104D16000F0F15151518191919191919191919191E
:0A4D260023240008101818100800DC
:00000001FF
